{"abi":[{"type":"constructor","inputs":[],"stateMutability":"nonpayable"},{"type":"function","name":"claimAll","inputs":[],"outputs":[],"stateMutability":"nonpayable"},{"type":"function","name":"claimTokens","inputs":[{"name":"_token","type":"address","internalType":"contract ERC20"}],"outputs":[],"stateMutability":"nonpayable"},{"type":"function","name":"createPool","inputs":[{"name":"_addressA","type":"address","internalType":"address"},{"name":"_addressB","type":"address","internalType":"address"},{"name":"_amountA","type":"uint256","internalType":"uint256"},{"name":"_amountB","type":"uint256","internalType":"uint256"}],"outputs":[],"stateMutability":"nonpayable"},{"type":"function","name":"getFees","inputs":[],"outputs":[{"name":"","type":"uint256","internalType":"uint256"}],"stateMutability":"view"},{"type":"function","name":"getPairAddress","inputs":[{"name":"token1","type":"address","internalType":"address"},{"name":"token2","type":"address","internalType":"address"}],"outputs":[{"name":"","type":"address","internalType":"address"}],"stateMutability":"view"},{"type":"function","name":"getPairsAddresses","inputs":[],"outputs":[{"name":"","type":"address[]","internalType":"address[]"},{"name":"","type":"tuple[]","internalType":"struct DeSwapFactory.InfosPool[]","components":[{"name":"tokenA","type":"address","internalType":"contract ERC20"},{"name":"tokenB","type":"address","internalType":"contract ERC20"}]}],"stateMutability":"view"},{"type":"function","name":"getTokensAmountToClaim","inputs":[],"outputs":[{"name":"","type":"uint256[]","internalType":"uint256[]"},{"name":"","type":"address[]","internalType":"contract ERC20[]"}],"stateMutability":"view"},{"type":"function","name":"owner","inputs":[],"outputs":[{"name":"","type":"address","internalType":"address"}],"stateMutability":"view"},{"type":"function","name":"pools","inputs":[{"name":"","type":"address","internalType":"address"}],"outputs":[{"name":"tokenA","type":"address","internalType":"contract ERC20"},{"name":"tokenB","type":"address","internalType":"contract ERC20"}],"stateMutability":"view"},{"type":"function","name":"renounceOwnership","inputs":[],"outputs":[],"stateMutability":"nonpayable"},{"type":"function","name":"setFees","inputs":[{"name":"_fee","type":"uint256","internalType":"uint256"}],"outputs":[],"stateMutability":"nonpayable"},{"type":"function","name":"tokens","inputs":[{"name":"","type":"uint256","internalType":"uint256"}],"outputs":[{"name":"","type":"address","internalType":"contract ERC20"}],"stateMutability":"view"},{"type":"function","name":"transferOwnership","inputs":[{"name":"newOwner","type":"address","internalType":"address"}],"outputs":[],"stateMutability":"nonpayable"},{"type":"event","name":"NewPoolCreated","inputs":[{"name":"poolAddress","type":"address","indexed":false,"internalType":"address"}],"anonymous":false},{"type":"event","name":"OwnershipTransferred","inputs":[{"name":"previousOwner","type":"address","indexed":true,"internalType":"address"},{"name":"newOwner","type":"address","indexed":true,"internalType":"address"}],"anonymous":false},{"type":"error","name":"OwnableInvalidOwner","inputs":[{"name":"owner","type":"address","internalType":"address"}]},{"type":"error","name":"OwnableUnauthorizedAccount","inputs":[{"name":"account","type":"address","internalType":"address"}]},{"type":"error","name":"ReentrancyGuardReentrantCall","inputs":[]}],"bytecode":{"object":"0x608060405234801561001057600080fd5b50338061003757604051631e4fbdf760e01b81526000600482015260240160405180910390fd5b6100408161004f565b5060018055600a60055561009f565b600080546001600160a01b038381166001600160a01b0319831681178455604051919092169283917f8be0079c531659141344cd1fd0a4f28419497f9722a3daafe3b4186f6b6457e09190a35050565b612a26806100ae6000396000f3fe60806040523480156200001157600080fd5b5060043610620000e05760003560e01c8063a4063dbc1162000097578063db8d55f1116200006e578063db8d55f114620001f8578063df8de3e7146200020a578063f2fde38b1462000221578063fabfdce7146200023857600080fd5b8063a4063dbc146200017f578063b4f69a2f14620001d7578063d1058e5914620001ee57600080fd5b80633d18678e14620000e55780634f64b2be14620000fe5780635f4f849e1462000132578063715018a6146200014c578063884db06314620001565780638da5cb5b146200016d575b600080fd5b620000fc620000f6366004620010d7565b62000252565b005b620001156200010f366004620010d7565b62000261565b6040516001600160a01b0390911681526020015b60405180910390f35b6200013c6200028c565b60405162000129929190620010f1565b620000fc62000452565b620000fc62000167366004620011a7565b6200046a565b6000546001600160a01b031662000115565b620001b662000190366004620011f2565b600260205260009081526040902080546001909101546001600160a01b03918216911682565b604080516001600160a01b0393841681529290911660208301520162000129565b62000115620001e836600462001219565b6200093d565b620000fc62000a4f565b60055460405190815260200162000129565b620000fc6200021b366004620011f2565b62000bad565b620000fc62000232366004620011f2565b62000ce9565b6200024262000d2d565b6040516200012992919062001257565b6200025c62000eaf565b600555565b600481815481106200027257600080fd5b6000918252602090912001546001600160a01b0316905081565b600354606090819060008167ffffffffffffffff811115620002b257620002b2620012df565b604051908082528060200260200182016040528015620002dc578160200160208202803683370190505b50905060008267ffffffffffffffff811115620002fd57620002fd620012df565b6040519080825280602002602001820160405280156200034457816020015b60408051808201909152600080825260208201528152602001906001900390816200031c5790505b50905060005b83811015620004475760038181548110620003695762000369620012f5565b9060005260206000200160009054906101000a90046001600160a01b03168382815181106200039c576200039c620012f5565b60200260200101906001600160a01b031690816001600160a01b0316815250506002600060038381548110620003d657620003d6620012f5565b60009182526020808320909101546001600160a01b039081168452838201949094526040928301909120825180840190935280548416835260010154909216918101919091528251839083908110620004335762000433620012f5565b60209081029190910101526001016200034a565b509094909350915050565b6200045c62000eaf565b62000468600062000ede565b565b6200047462000f2e565b838362000482828262000f59565b15620004ca5760405162461bcd60e51b8152602060048201526012602482015271141bdbdb08185b1c9958591e48195e1a5cdd60721b60448201526064015b60405180910390fd5b604051636eb1769f60e11b815233600482015230602482015284906001600160a01b0384169063dd62ed3e90604401602060405180830381865afa15801562000517573d6000803e3d6000fd5b505050506040513d601f19601f820116820180604052508101906200053d91906200130b565b10156200058d5760405162461bcd60e51b815260206004820152601760248201527f6e6f20616c6c6f77616e636520666f7220746f6b656e410000000000000000006044820152606401620004c1565b604051636eb1769f60e11b815233600482015230602482015283906001600160a01b0383169063dd62ed3e90604401602060405180830381865afa158015620005da573d6000803e3d6000fd5b505050506040513d601f19601f820116820180604052508101906200060091906200130b565b1015620006505760405162461bcd60e51b815260206004820152601760248201527f6e6f20616c6c6f77616e636520666f7220746f6b656e420000000000000000006044820152606401620004c1565b6200065b8262001060565b620006ac57600480546001810182556000919091527f8a35acfbc15ff81a39ae7d344fd709f28e8600b4aa8c65c6b64bfe7fe36bd19b0180546001600160a01b0319166001600160a01b0384161790555b620006b78162001060565b6200070857600480546001810182556000919091527f8a35acfbc15ff81a39ae7d344fd709f28e8600b4aa8c65c6b64bfe7fe36bd19b0180546001600160a01b0319166001600160a01b0383161790555b600082823087876040516200071d90620010c9565b6001600160a01b03958616815293851660208501529390911660408301526060820152608081019190915260a001604051809103906000f08015801562000768573d6000803e3d6000fd5b506040516323b872dd60e01b81523360048201526001600160a01b03808316602483015260448201889052919250908416906323b872dd906064016020604051808303816000875af1158015620007c3573d6000803e3d6000fd5b505050506040513d601f19601f82011682018060405250810190620007e9919062001325565b506040516323b872dd60e01b81523360048201526001600160a01b038281166024830152604482018690528316906323b872dd906064016020604051808303816000875af115801562000840573d6000803e3d6000fd5b505050506040513d601f19601f8201168201806040525081019062000866919062001325565b506040805180820182526001600160a01b0385811682528481166020808401918252858316600081815260028352868120955186549086166001600160a01b031991821617875593516001968701805491909616908516179094556003805495860181559093527fc2575a0e9e593c00f959f8c92f12db2869c3395a3b0502d05e2516446f71f85b90930180549091168217905591519182527f84beea356a8ed330e56f7d55aad6858501748effc667b5536021b83e1ca6bbf5910160405180910390a15050506200093760018055565b50505050565b6003546000908383835b8381101562000a4057600060038281548110620009685762000968620012f5565b60009182526020808320909101546001600160a01b0390811680845260029092526040909220549092508116908516148015620009c457506001600160a01b038181166000908152600260205260409020600101548116908416145b15620009d757945062000a499350505050565b6001600160a01b03818116600090815260026020526040902054811690841614801562000a2357506001600160a01b038181166000908152600260205260409020600101548116908516145b1562000a3657945062000a499350505050565b5060010162000947565b50600093505050505b92915050565b62000a5962000eaf565b60045460005b8181101562000ba9576004818154811062000a7e5762000a7e620012f5565b600091825260209091200154600480546001600160a01b039092169163a9059cbb9133918590811062000ab55762000ab5620012f5565b6000918252602090912001546040516370a0823160e01b81523060048201526001600160a01b03909116906370a0823190602401602060405180830381865afa15801562000b07573d6000803e3d6000fd5b505050506040513d601f19601f8201168201806040525081019062000b2d91906200130b565b6040516001600160e01b031960e085901b1681526001600160a01b03909216600483015260248201526044016020604051808303816000875af115801562000b79573d6000803e3d6000fd5b505050506040513d601f19601f8201168201806040525081019062000b9f919062001325565b5060010162000a5f565b5050565b62000bb762000eaf565b62000bc28162001060565b62000c025760405162461bcd60e51b815260206004820152600f60248201526e151bdad95b881b9bdd08195e1a5cdd608a1b6044820152606401620004c1565b6040516370a0823160e01b81523060048201526001600160a01b0382169063a9059cbb90339083906370a0823190602401602060405180830381865afa15801562000c51573d6000803e3d6000fd5b505050506040513d601f19601f8201168201806040525081019062000c7791906200130b565b6040516001600160e01b031960e085901b1681526001600160a01b03909216600483015260248201526044016020604051808303816000875af115801562000cc3573d6000803e3d6000fd5b505050506040513d601f19601f8201168201806040525081019062000ba9919062001325565b62000cf362000eaf565b6001600160a01b03811662000d1f57604051631e4fbdf760e01b815260006004820152602401620004c1565b62000d2a8162000ede565b50565b600454606090819060008167ffffffffffffffff81111562000d535762000d53620012df565b60405190808252806020026020018201604052801562000d7d578160200160208202803683370190505b50905060005b8281101562000e43576004818154811062000da25762000da2620012f5565b6000918252602090912001546040516370a0823160e01b81523060048201526001600160a01b03909116906370a0823190602401602060405180830381865afa15801562000df4573d6000803e3d6000fd5b505050506040513d601f19601f8201168201806040525081019062000e1a91906200130b565b82828151811062000e2f5762000e2f620012f5565b602090810291909101015260010162000d83565b508060048080548060200260200160405190810160405280929190818152602001828054801562000e9e57602002820191906000526020600020905b81546001600160a01b0316815260019091019060200180831162000e7f575b505050505090509350935050509091565b6000546001600160a01b03163314620004685760405163118cdaa760e01b8152336004820152602401620004c1565b600080546001600160a01b038381166001600160a01b0319831681178455604051919092169283917f8be0079c531659141344cd1fd0a4f28419497f9722a3daafe3b4186f6b6457e09190a35050565b60026001540362000f5257604051633ee5aeb560e01b815260040160405180910390fd5b6002600155565b6003546000908383835b8381101562000a405760006003828154811062000f845762000f84620012f5565b60009182526020808320909101546001600160a01b039081168084526002909252604090922054909250811690851614801562000fe057506001600160a01b038181166000908152600260205260409020600101548116908416145b1562000ff55760019550505050505062000a49565b6001600160a01b0381811660009081526002602052604090205481169084161480156200104157506001600160a01b038181166000908152600260205260409020600101548116908516145b15620010565760019550505050505062000a49565b5060010162000f63565b600454600090815b81811015620010bf57836001600160a01b031660048281548110620010915762001091620012f5565b6000918252602090912001546001600160a01b031603620010b6575060019392505050565b60010162001068565b5060009392505050565b6116a7806200134a83390190565b600060208284031215620010ea57600080fd5b5035919050565b60408082528351828201819052600091906020906060850190828801855b82811015620011365781516001600160a01b0316845292840192908401906001016200110f565b5050508481038286015285518082528683019183019060005b818110156200118357835180516001600160a01b03908116855290860151168584015292840192918501916001016200114f565b509098975050505050505050565b6001600160a01b038116811462000d2a57600080fd5b60008060008060808587031215620011be57600080fd5b8435620011cb8162001191565b93506020850135620011dd8162001191565b93969395505050506040820135916060013590565b6000602082840312156200120557600080fd5b8135620012128162001191565b9392505050565b600080604083850312156200122d57600080fd5b82356200123a8162001191565b915060208301356200124c8162001191565b809150509250929050565b604080825283519082018190526000906020906060840190828701845b82811015620012925781518452928401929084019060010162001274565b5050508381038285015284518082528583019183019060005b81811015620012d25783516001600160a01b031683529284019291840191600101620012ab565b5090979650505050505050565b634e487b7160e01b600052604160045260246000fd5b634e487b7160e01b600052603260045260246000fd5b6000602082840312156200131e57600080fd5b5051919050565b6000602082840312156200133857600080fd5b815180151581146200121257600080fdfe60806040523480156200001157600080fd5b50604051620016a7380380620016a78339810160408190526200003491620000d7565b6001600081905580546001600160a01b03199081166001600160a01b03888116919091179092556002805482168784161790556005805490911691851691909117905560048054610100600160a81b0319166101003302179055670de0b6b3a7640000620000a382846200013c565b620000af919062000168565b600355506200018b9350505050565b6001600160a01b0381168114620000d457600080fd5b50565b600080600080600060a08688031215620000f057600080fd5b8551620000fd81620000be565b60208701519095506200011081620000be565b60408701519094506200012381620000be565b6060870151608090970151959894975095949392505050565b80820281158282048414176200016257634e487b7160e01b600052601160045260246000fd5b92915050565b6000826200018657634e487b7160e01b600052601260045260246000fd5b500490565b61150c806200019b6000396000f3fe608060405234801561001057600080fd5b50600436106101005760003560e01c80638da5cb5b11610097578063ac60e68e11610066578063ac60e68e14610221578063b4f40c6114610229578063e25aa0bc14610232578063e4f1f70a1461023a57600080fd5b80638da5cb5b1461018f5780639cd441da146101bf5780639d7de6b3146101d2578063a2687c63146101e557600080fd5b806366805de5116100d357806366805de51461014c5780636fa62b09146101565780638014a7aa14610169578063813f79de1461017c57600080fd5b80633fc0375a14610105578063497a2e2a146101205780634e69d56014610128578063597e1fb51461013f575b600080fd5b61010d61024d565b6040519081526020015b60405180910390f35b61010d6103c2565b60045460ff165b6040519015158152602001610117565b60045461012f9060ff1681565b610154610430565b005b61010d610164366004611259565b6104ad565b610154610177366004611259565b6104e7565b61010d61018a366004611259565b61081b565b6004546101a79061010090046001600160a01b031681565b6040516001600160a01b039091168152602001610117565b6101546101cd366004611272565b610845565b6101546101e0366004611272565b610b9e565b61020c6101f3366004611294565b6006602052600090815260409020805460019091015482565b60408051928352602083019190915201610117565b61010d610e3e565b61010d60035481565b61010d610f5d565b610154610248366004611259565b610f8e565b6002546040516370a0823160e01b81523060048201526000916001600160a01b0316906370a0823190602401602060405180830381865afa158015610296573d6000803e3d6000fd5b505050506040513d601f19601f820116820180604052508101906102ba91906112c4565b600260009054906101000a90046001600160a01b03166001600160a01b031663313ce5676040518163ffffffff1660e01b8152600401602060405180830381865afa15801561030d573d6000803e3d6000fd5b505050506040513d601f19601f8201168201806040525081019061033191906112dd565b61033c90600a6113fa565b6001546040516370a0823160e01b81523060048201526001600160a01b03909116906370a08231906024015b602060405180830381865afa158015610385573d6000803e3d6000fd5b505050506040513d601f19601f820116820180604052508101906103a991906112c4565b6103b39190611409565b6103bd9190611420565b905090565b6001546040516370a0823160e01b81523060048201526000916001600160a01b0316906370a08231906024015b602060405180830381865afa15801561040c573d6000803e3d6000fd5b505050506040513d601f19601f820116820180604052508101906103bd91906112c4565b60045461010090046001600160a01b0316331461049e5760405162461bcd60e51b815260206004820152602160248201527f4f6e6c7920746865206f776e65722063616e20636c6f73652074686520706f6f6044820152601b60fa1b60648201526084015b60405180910390fd5b6004805460ff19166001179055565b6000816104b86103c2565b6104c29190611442565b6003546104cf9190611420565b6104d7610f5d565b6104e19190611455565b92915050565b6104ef61122f565b60045460ff16156105125760405162461bcd60e51b815260040161049590611468565b600254604051636eb1769f60e11b815233600482015230602482015282916001600160a01b03169063dd62ed3e90604401602060405180830381865afa158015610560573d6000803e3d6000fd5b505050506040513d601f19601f8201168201806040525081019061058491906112c4565b10156105cc5760405162461bcd60e51b815260206004820152601760248201527637379030b63637bbb0b731b2903337b9103a37b5b2b72160491b6044820152606401610495565b60006105d78261081b565b90506000600560009054906101000a90046001600160a01b03166001600160a01b031663db8d55f16040518163ffffffff1660e01b8152600401602060405180830381865afa15801561062e573d6000803e3d6000fd5b505050506040513d601f19601f8201168201806040525081019061065291906112c4565b6002546040516323b872dd60e01b81529192506001600160a01b0316906323b872dd9061068790339030908890600401611490565b6020604051808303816000875af11580156106a6573d6000803e3d6000fd5b505050506040513d601f19601f820116820180604052508101906106ca91906114b4565b506001546005546001600160a01b039182169163a9059cbb911660646106f08587611409565b6106fa9190611420565b6040516001600160e01b031960e085901b1681526001600160a01b03909216600483015260248201526044016020604051808303816000875af1158015610745573d6000803e3d6000fd5b505050506040513d601f19601f8201168201806040525081019061076991906114b4565b506001546001600160a01b031663a9059cbb3360646107888582611455565b6107929087611409565b61079c9190611420565b6040516001600160e01b031960e085901b1681526001600160a01b03909216600483015260248201526044016020604051808303816000875af11580156107e7573d6000803e3d6000fd5b505050506040513d601f19601f8201168201806040525081019061080b91906114b4565b5050506108186001600055565b50565b600081610826610f5d565b6108309190611442565b60035461083d9190611420565b6104d76103c2565b61084d61122f565b60045460ff16156108705760405162461bcd60e51b815260040161049590611468565b600154604051636eb1769f60e11b815233600482015230602482015283916001600160a01b03169063dd62ed3e90604401602060405180830381865afa1580156108be573d6000803e3d6000fd5b505050506040513d601f19601f820116820180604052508101906108e291906112c4565b101561092a5760405162461bcd60e51b81526020600482015260176024820152766e6f20616c6c6f77616e636520666f7220746f6b656e4160481b6044820152606401610495565b600254604051636eb1769f60e11b815233600482015230602482015282916001600160a01b03169063dd62ed3e90604401602060405180830381865afa158015610978573d6000803e3d6000fd5b505050506040513d601f19601f8201168201806040525081019061099c91906112c4565b10156109e45760405162461bcd60e51b815260206004820152601760248201527637379030b63637bbb0b731b2903337b9103a37b5b2b72160491b6044820152606401610495565b60006109ee610f5d565b6109f66103c2565b610a009190611420565b90506000610a0e8385611420565b9050808214610a525760405162461bcd60e51b815260206004820152601060248201526f151a19481c985d1a5bc81a5cc818985960821b6044820152606401610495565b6001546040516323b872dd60e01b81526001600160a01b03909116906323b872dd90610a8690339030908990600401611490565b6020604051808303816000875af1158015610aa5573d6000803e3d6000fd5b505050506040513d601f19601f82011682018060405250810190610ac991906114b4565b506002546040516323b872dd60e01b81526001600160a01b03909116906323b872dd90610afe90339030908890600401611490565b6020604051808303816000875af1158015610b1d573d6000803e3d6000fd5b505050506040513d601f19601f82011682018060405250810190610b4191906114b4565b503360009081526006602052604081208054869290610b61908490611442565b90915550503360009081526006602052604081206001018054859290610b88908490611442565b9091555050600160005550610b9a9050565b5050565b610ba661122f565b33600090815260066020526040902054821115610c055760405162461bcd60e51b815260206004820152601f60248201527f4e6f7420656e6f756768206c697175696469747920666f7220746f6b656e41006044820152606401610495565b33600090815260066020526040902060010154811115610c675760405162461bcd60e51b815260206004820152601f60248201527f4e6f7420656e6f756768206c697175696469747920666f7220746f6b656e42006044820152606401610495565b6000610c71610f5d565b610c796103c2565b610c839190611420565b9050600082610c90610f5d565b610c9a9190611455565b84610ca36103c2565b610cad9190611455565b610cb79190611420565b9050808214610cfb5760405162461bcd60e51b815260206004820152601060248201526f151a19481c985d1a5bc81a5cc818985960821b6044820152606401610495565b3360009081526006602052604081208054869290610d1a908490611455565b90915550503360009081526006602052604081206001018054859290610d41908490611455565b909155505060015460405163a9059cbb60e01b8152336004820152602481018690526001600160a01b039091169063a9059cbb906044016020604051808303816000875af1158015610d97573d6000803e3d6000fd5b505050506040513d601f19601f82011682018060405250810190610dbb91906114b4565b5060025460405163a9059cbb60e01b8152336004820152602481018590526001600160a01b039091169063a9059cbb906044016020604051808303816000875af1158015610e0d573d6000803e3d6000fd5b505050506040513d601f19601f82011682018060405250810190610e3191906114b4565b505050610b9a6001600055565b6001546040516370a0823160e01b81523060048201526000916001600160a01b0316906370a0823190602401602060405180830381865afa158015610e87573d6000803e3d6000fd5b505050506040513d601f19601f82011682018060405250810190610eab91906112c4565b600160009054906101000a90046001600160a01b03166001600160a01b031663313ce5676040518163ffffffff1660e01b8152600401602060405180830381865afa158015610efe573d6000803e3d6000fd5b505050506040513d601f19601f82011682018060405250810190610f2291906112dd565b610f2d90600a6113fa565b6002546040516370a0823160e01b81523060048201526001600160a01b03909116906370a0823190602401610368565b6002546040516370a0823160e01b81523060048201526000916001600160a01b0316906370a08231906024016103ef565b610f9661122f565b60045460ff1615610fb95760405162461bcd60e51b815260040161049590611468565b600154604051636eb1769f60e11b815233600482015230602482015282916001600160a01b03169063dd62ed3e90604401602060405180830381865afa158015611007573d6000803e3d6000fd5b505050506040513d601f19601f8201168201806040525081019061102b91906112c4565b10156110735760405162461bcd60e51b81526020600482015260176024820152766e6f20616c6c6f77616e636520666f7220746f6b656e4160481b6044820152606401610495565b600061107e826104ad565b90506000600560009054906101000a90046001600160a01b03166001600160a01b031663db8d55f16040518163ffffffff1660e01b8152600401602060405180830381865afa1580156110d5573d6000803e3d6000fd5b505050506040513d601f19601f820116820180604052508101906110f991906112c4565b6001546040516323b872dd60e01b81529192506001600160a01b0316906323b872dd9061112e90339030908890600401611490565b6020604051808303816000875af115801561114d573d6000803e3d6000fd5b505050506040513d601f19601f8201168201806040525081019061117191906114b4565b506002546005546001600160a01b039182169163a9059cbb911660646111978587611409565b6111a19190611420565b6040516001600160e01b031960e085901b1681526001600160a01b03909216600483015260248201526044016020604051808303816000875af11580156111ec573d6000803e3d6000fd5b505050506040513d601f19601f8201168201806040525081019061121091906114b4565b506002546001600160a01b031663a9059cbb3360646107888582611455565b60026000540361125257604051633ee5aeb560e01b815260040160405180910390fd5b6002600055565b60006020828403121561126b57600080fd5b5035919050565b6000806040838503121561128557600080fd5b50508035926020909101359150565b6000602082840312156112a657600080fd5b81356001600160a01b03811681146112bd57600080fd5b9392505050565b6000602082840312156112d657600080fd5b5051919050565b6000602082840312156112ef57600080fd5b815160ff811681146112bd57600080fd5b634e487b7160e01b600052601160045260246000fd5b600181815b8085111561135157816000190482111561133757611337611300565b8085161561134457918102915b93841c939080029061131b565b509250929050565b600082611368575060016104e1565b81611375575060006104e1565b816001811461138b5760028114611395576113b1565b60019150506104e1565b60ff8411156113a6576113a6611300565b50506001821b6104e1565b5060208310610133831016604e8410600b84101617156113d4575081810a6104e1565b6113de8383611316565b80600019048211156113f2576113f2611300565b029392505050565b60006112bd60ff841683611359565b80820281158282048414176104e1576104e1611300565b60008261143d57634e487b7160e01b600052601260045260246000fd5b500490565b808201808211156104e1576104e1611300565b818103818111156104e1576104e1611300565b6020808252600e908201526d141bdbdb081a5cc818db1bdcd95960921b604082015260600190565b6001600160a01b039384168152919092166020820152604081019190915260600190565b6000602082840312156114c657600080fd5b815180151581146112bd57600080fdfea26469706673582212206dfc8f8a1a4acadcac0fc6fb29bba77d2dc1fab1113e9bd6e707221905d165c464736f6c63430008180033a26469706673582212202efc5cefcfed7882e574f6ef96d47b0ea9f58fd3d69b3d8a5bfc1074f3993f1764736f6c63430008180033","linkReferences":{}},"methodIdentifiers":{"claimAll()":"d1058e59","claimTokens(address)":"df8de3e7","createPool(address,address,uint256,uint256)":"884db063","getFees()":"db8d55f1","getPairAddress(address,address)":"b4f69a2f","getPairsAddresses()":"5f4f849e","getTokensAmountToClaim()":"fabfdce7","owner()":"8da5cb5b","pools(address)":"a4063dbc","renounceOwnership()":"715018a6","setFees(uint256)":"3d18678e","tokens(uint256)":"4f64b2be","transferOwnership(address)":"f2fde38b"},"id":7}