{"abi":[{"type":"constructor","inputs":[{"name":"_tokenA","type":"address","internalType":"contract ERC20"},{"name":"_tokenB","type":"address","internalType":"contract ERC20"},{"name":"_factory","type":"address","internalType":"address"},{"name":"_amountA","type":"uint256","internalType":"uint256"},{"name":"_amountB","type":"uint256","internalType":"uint256"}],"stateMutability":"nonpayable"},{"type":"function","name":"addLiquidity","inputs":[{"name":"_amountA","type":"uint256","internalType":"uint256"},{"name":"_amountB","type":"uint256","internalType":"uint256"}],"outputs":[],"stateMutability":"nonpayable"},{"type":"function","name":"closePool","inputs":[],"outputs":[],"stateMutability":"nonpayable"},{"type":"function","name":"closed","inputs":[],"outputs":[{"name":"","type":"bool","internalType":"bool"}],"stateMutability":"view"},{"type":"function","name":"getExactTokenA","inputs":[{"name":"_amountB","type":"uint256","internalType":"uint256"}],"outputs":[{"name":"_amountA","type":"uint256","internalType":"uint256"}],"stateMutability":"view"},{"type":"function","name":"getExactTokenB","inputs":[{"name":"_amountA","type":"uint256","internalType":"uint256"}],"outputs":[{"name":"_amountB","type":"uint256","internalType":"uint256"}],"stateMutability":"view"},{"type":"function","name":"getRateAforB","inputs":[],"outputs":[{"name":"","type":"uint256","internalType":"uint256"}],"stateMutability":"view"},{"type":"function","name":"getRateBforA","inputs":[],"outputs":[{"name":"","type":"uint256","internalType":"uint256"}],"stateMutability":"view"},{"type":"function","name":"getStatus","inputs":[],"outputs":[{"name":"","type":"bool","internalType":"bool"}],"stateMutability":"view"},{"type":"function","name":"getSupplyA","inputs":[],"outputs":[{"name":"","type":"uint256","internalType":"uint256"}],"stateMutability":"view"},{"type":"function","name":"getSupplyB","inputs":[],"outputs":[{"name":"","type":"uint256","internalType":"uint256"}],"stateMutability":"view"},{"type":"function","name":"k","inputs":[],"outputs":[{"name":"","type":"uint256","internalType":"uint256"}],"stateMutability":"view"},{"type":"function","name":"liquidityProvider","inputs":[{"name":"","type":"address","internalType":"address"}],"outputs":[{"name":"amountA","type":"uint256","internalType":"uint256"},{"name":"amountB","type":"uint256","internalType":"uint256"}],"stateMutability":"view"},{"type":"function","name":"owner","inputs":[],"outputs":[{"name":"","type":"address","internalType":"address"}],"stateMutability":"view"},{"type":"function","name":"removeLiquidity","inputs":[{"name":"_amountA","type":"uint256","internalType":"uint256"},{"name":"_amountB","type":"uint256","internalType":"uint256"}],"outputs":[],"stateMutability":"nonpayable"},{"type":"function","name":"swapAforB","inputs":[{"name":"_amountA","type":"uint256","internalType":"uint256"}],"outputs":[],"stateMutability":"nonpayable"},{"type":"function","name":"swapBforA","inputs":[{"name":"_amountB","type":"uint256","internalType":"uint256"}],"outputs":[],"stateMutability":"nonpayable"},{"type":"error","name":"ReentrancyGuardReentrantCall","inputs":[]}],"bytecode":{"object":"0x60806040523480156200001157600080fd5b50604051620016a7380380620016a78339810160408190526200003491620000d7565b6001600081905580546001600160a01b03199081166001600160a01b03888116919091179092556002805482168784161790556005805490911691851691909117905560048054610100600160a81b0319166101003302179055670de0b6b3a7640000620000a382846200013c565b620000af919062000168565b600355506200018b9350505050565b6001600160a01b0381168114620000d457600080fd5b50565b600080600080600060a08688031215620000f057600080fd5b8551620000fd81620000be565b60208701519095506200011081620000be565b60408701519094506200012381620000be565b6060870151608090970151959894975095949392505050565b80820281158282048414176200016257634e487b7160e01b600052601160045260246000fd5b92915050565b6000826200018657634e487b7160e01b600052601260045260246000fd5b500490565b61150c806200019b6000396000f3fe608060405234801561001057600080fd5b50600436106101005760003560e01c80638da5cb5b11610097578063ac60e68e11610066578063ac60e68e14610221578063b4f40c6114610229578063e25aa0bc14610232578063e4f1f70a1461023a57600080fd5b80638da5cb5b1461018f5780639cd441da146101bf5780639d7de6b3146101d2578063a2687c63146101e557600080fd5b806366805de5116100d357806366805de51461014c5780636fa62b09146101565780638014a7aa14610169578063813f79de1461017c57600080fd5b80633fc0375a14610105578063497a2e2a146101205780634e69d56014610128578063597e1fb51461013f575b600080fd5b61010d61024d565b6040519081526020015b60405180910390f35b61010d6103c2565b60045460ff165b6040519015158152602001610117565b60045461012f9060ff1681565b610154610430565b005b61010d610164366004611259565b6104ad565b610154610177366004611259565b6104e7565b61010d61018a366004611259565b61081b565b6004546101a79061010090046001600160a01b031681565b6040516001600160a01b039091168152602001610117565b6101546101cd366004611272565b610845565b6101546101e0366004611272565b610b9e565b61020c6101f3366004611294565b6006602052600090815260409020805460019091015482565b60408051928352602083019190915201610117565b61010d610e3e565b61010d60035481565b61010d610f5d565b610154610248366004611259565b610f8e565b6002546040516370a0823160e01b81523060048201526000916001600160a01b0316906370a0823190602401602060405180830381865afa158015610296573d6000803e3d6000fd5b505050506040513d601f19601f820116820180604052508101906102ba91906112c4565b600260009054906101000a90046001600160a01b03166001600160a01b031663313ce5676040518163ffffffff1660e01b8152600401602060405180830381865afa15801561030d573d6000803e3d6000fd5b505050506040513d601f19601f8201168201806040525081019061033191906112dd565b61033c90600a6113fa565b6001546040516370a0823160e01b81523060048201526001600160a01b03909116906370a08231906024015b602060405180830381865afa158015610385573d6000803e3d6000fd5b505050506040513d601f19601f820116820180604052508101906103a991906112c4565b6103b39190611409565b6103bd9190611420565b905090565b6001546040516370a0823160e01b81523060048201526000916001600160a01b0316906370a08231906024015b602060405180830381865afa15801561040c573d6000803e3d6000fd5b505050506040513d601f19601f820116820180604052508101906103bd91906112c4565b60045461010090046001600160a01b0316331461049e5760405162461bcd60e51b815260206004820152602160248201527f4f6e6c7920746865206f776e65722063616e20636c6f73652074686520706f6f6044820152601b60fa1b60648201526084015b60405180910390fd5b6004805460ff19166001179055565b6000816104b86103c2565b6104c29190611442565b6003546104cf9190611420565b6104d7610f5d565b6104e19190611455565b92915050565b6104ef61122f565b60045460ff16156105125760405162461bcd60e51b815260040161049590611468565b600254604051636eb1769f60e11b815233600482015230602482015282916001600160a01b03169063dd62ed3e90604401602060405180830381865afa158015610560573d6000803e3d6000fd5b505050506040513d601f19601f8201168201806040525081019061058491906112c4565b10156105cc5760405162461bcd60e51b815260206004820152601760248201527637379030b63637bbb0b731b2903337b9103a37b5b2b72160491b6044820152606401610495565b60006105d78261081b565b90506000600560009054906101000a90046001600160a01b03166001600160a01b031663db8d55f16040518163ffffffff1660e01b8152600401602060405180830381865afa15801561062e573d6000803e3d6000fd5b505050506040513d601f19601f8201168201806040525081019061065291906112c4565b6002546040516323b872dd60e01b81529192506001600160a01b0316906323b872dd9061068790339030908890600401611490565b6020604051808303816000875af11580156106a6573d6000803e3d6000fd5b505050506040513d601f19601f820116820180604052508101906106ca91906114b4565b506001546005546001600160a01b039182169163a9059cbb911660646106f08587611409565b6106fa9190611420565b6040516001600160e01b031960e085901b1681526001600160a01b03909216600483015260248201526044016020604051808303816000875af1158015610745573d6000803e3d6000fd5b505050506040513d601f19601f8201168201806040525081019061076991906114b4565b506001546001600160a01b031663a9059cbb3360646107888582611455565b6107929087611409565b61079c9190611420565b6040516001600160e01b031960e085901b1681526001600160a01b03909216600483015260248201526044016020604051808303816000875af11580156107e7573d6000803e3d6000fd5b505050506040513d601f19601f8201168201806040525081019061080b91906114b4565b5050506108186001600055565b50565b600081610826610f5d565b6108309190611442565b60035461083d9190611420565b6104d76103c2565b61084d61122f565b60045460ff16156108705760405162461bcd60e51b815260040161049590611468565b600154604051636eb1769f60e11b815233600482015230602482015283916001600160a01b03169063dd62ed3e90604401602060405180830381865afa1580156108be573d6000803e3d6000fd5b505050506040513d601f19601f820116820180604052508101906108e291906112c4565b101561092a5760405162461bcd60e51b81526020600482015260176024820152766e6f20616c6c6f77616e636520666f7220746f6b656e4160481b6044820152606401610495565b600254604051636eb1769f60e11b815233600482015230602482015282916001600160a01b03169063dd62ed3e90604401602060405180830381865afa158015610978573d6000803e3d6000fd5b505050506040513d601f19601f8201168201806040525081019061099c91906112c4565b10156109e45760405162461bcd60e51b815260206004820152601760248201527637379030b63637bbb0b731b2903337b9103a37b5b2b72160491b6044820152606401610495565b60006109ee610f5d565b6109f66103c2565b610a009190611420565b90506000610a0e8385611420565b9050808214610a525760405162461bcd60e51b815260206004820152601060248201526f151a19481c985d1a5bc81a5cc818985960821b6044820152606401610495565b6001546040516323b872dd60e01b81526001600160a01b03909116906323b872dd90610a8690339030908990600401611490565b6020604051808303816000875af1158015610aa5573d6000803e3d6000fd5b505050506040513d601f19601f82011682018060405250810190610ac991906114b4565b506002546040516323b872dd60e01b81526001600160a01b03909116906323b872dd90610afe90339030908890600401611490565b6020604051808303816000875af1158015610b1d573d6000803e3d6000fd5b505050506040513d601f19601f82011682018060405250810190610b4191906114b4565b503360009081526006602052604081208054869290610b61908490611442565b90915550503360009081526006602052604081206001018054859290610b88908490611442565b9091555050600160005550610b9a9050565b5050565b610ba661122f565b33600090815260066020526040902054821115610c055760405162461bcd60e51b815260206004820152601f60248201527f4e6f7420656e6f756768206c697175696469747920666f7220746f6b656e41006044820152606401610495565b33600090815260066020526040902060010154811115610c675760405162461bcd60e51b815260206004820152601f60248201527f4e6f7420656e6f756768206c697175696469747920666f7220746f6b656e42006044820152606401610495565b6000610c71610f5d565b610c796103c2565b610c839190611420565b9050600082610c90610f5d565b610c9a9190611455565b84610ca36103c2565b610cad9190611455565b610cb79190611420565b9050808214610cfb5760405162461bcd60e51b815260206004820152601060248201526f151a19481c985d1a5bc81a5cc818985960821b6044820152606401610495565b3360009081526006602052604081208054869290610d1a908490611455565b90915550503360009081526006602052604081206001018054859290610d41908490611455565b909155505060015460405163a9059cbb60e01b8152336004820152602481018690526001600160a01b039091169063a9059cbb906044016020604051808303816000875af1158015610d97573d6000803e3d6000fd5b505050506040513d601f19601f82011682018060405250810190610dbb91906114b4565b5060025460405163a9059cbb60e01b8152336004820152602481018590526001600160a01b039091169063a9059cbb906044016020604051808303816000875af1158015610e0d573d6000803e3d6000fd5b505050506040513d601f19601f82011682018060405250810190610e3191906114b4565b505050610b9a6001600055565b6001546040516370a0823160e01b81523060048201526000916001600160a01b0316906370a0823190602401602060405180830381865afa158015610e87573d6000803e3d6000fd5b505050506040513d601f19601f82011682018060405250810190610eab91906112c4565b600160009054906101000a90046001600160a01b03166001600160a01b031663313ce5676040518163ffffffff1660e01b8152600401602060405180830381865afa158015610efe573d6000803e3d6000fd5b505050506040513d601f19601f82011682018060405250810190610f2291906112dd565b610f2d90600a6113fa565b6002546040516370a0823160e01b81523060048201526001600160a01b03909116906370a0823190602401610368565b6002546040516370a0823160e01b81523060048201526000916001600160a01b0316906370a08231906024016103ef565b610f9661122f565b60045460ff1615610fb95760405162461bcd60e51b815260040161049590611468565b600154604051636eb1769f60e11b815233600482015230602482015282916001600160a01b03169063dd62ed3e90604401602060405180830381865afa158015611007573d6000803e3d6000fd5b505050506040513d601f19601f8201168201806040525081019061102b91906112c4565b10156110735760405162461bcd60e51b81526020600482015260176024820152766e6f20616c6c6f77616e636520666f7220746f6b656e4160481b6044820152606401610495565b600061107e826104ad565b90506000600560009054906101000a90046001600160a01b03166001600160a01b031663db8d55f16040518163ffffffff1660e01b8152600401602060405180830381865afa1580156110d5573d6000803e3d6000fd5b505050506040513d601f19601f820116820180604052508101906110f991906112c4565b6001546040516323b872dd60e01b81529192506001600160a01b0316906323b872dd9061112e90339030908890600401611490565b6020604051808303816000875af115801561114d573d6000803e3d6000fd5b505050506040513d601f19601f8201168201806040525081019061117191906114b4565b506002546005546001600160a01b039182169163a9059cbb911660646111978587611409565b6111a19190611420565b6040516001600160e01b031960e085901b1681526001600160a01b03909216600483015260248201526044016020604051808303816000875af11580156111ec573d6000803e3d6000fd5b505050506040513d601f19601f8201168201806040525081019061121091906114b4565b506002546001600160a01b031663a9059cbb3360646107888582611455565b60026000540361125257604051633ee5aeb560e01b815260040160405180910390fd5b6002600055565b60006020828403121561126b57600080fd5b5035919050565b6000806040838503121561128557600080fd5b50508035926020909101359150565b6000602082840312156112a657600080fd5b81356001600160a01b03811681146112bd57600080fd5b9392505050565b6000602082840312156112d657600080fd5b5051919050565b6000602082840312156112ef57600080fd5b815160ff811681146112bd57600080fd5b634e487b7160e01b600052601160045260246000fd5b600181815b8085111561135157816000190482111561133757611337611300565b8085161561134457918102915b93841c939080029061131b565b509250929050565b600082611368575060016104e1565b81611375575060006104e1565b816001811461138b5760028114611395576113b1565b60019150506104e1565b60ff8411156113a6576113a6611300565b50506001821b6104e1565b5060208310610133831016604e8410600b84101617156113d4575081810a6104e1565b6113de8383611316565b80600019048211156113f2576113f2611300565b029392505050565b60006112bd60ff841683611359565b80820281158282048414176104e1576104e1611300565b60008261143d57634e487b7160e01b600052601260045260246000fd5b500490565b808201808211156104e1576104e1611300565b818103818111156104e1576104e1611300565b6020808252600e908201526d141bdbdb081a5cc818db1bdcd95960921b604082015260600190565b6001600160a01b039384168152919092166020820152604081019190915260600190565b6000602082840312156114c657600080fd5b815180151581146112bd57600080fdfea26469706673582212206dfc8f8a1a4acadcac0fc6fb29bba77d2dc1fab1113e9bd6e707221905d165c464736f6c63430008180033","linkReferences":{}},"methodIdentifiers":{"addLiquidity(uint256,uint256)":"9cd441da","closePool()":"66805de5","closed()":"597e1fb5","getExactTokenA(uint256)":"813f79de","getExactTokenB(uint256)":"6fa62b09","getRateAforB()":"ac60e68e","getRateBforA()":"3fc0375a","getStatus()":"4e69d560","getSupplyA()":"497a2e2a","getSupplyB()":"e25aa0bc","k()":"b4f40c61","liquidityProvider(address)":"a2687c63","owner()":"8da5cb5b","removeLiquidity(uint256,uint256)":"9d7de6b3","swapAforB(uint256)":"e4f1f70a","swapBforA(uint256)":"8014a7aa"},"id":9}